{"_format":"hh-sol-artifact-1","contractName":"Staking","sourceName":"contracts/Staking.sol","abi":[{"inputs":[],"name":"NoRewardsError","type":"error"},{"inputs":[],"name":"TransferFailError","type":"error"},{"anonymous":false,"inputs":[{"indexed":false,"internalType":"address","name":"token","type":"address"},{"indexed":false,"internalType":"bool","name":"isAllowed","type":"bool"}],"name":"AddToken","type":"event"},{"anonymous":false,"inputs":[{"indexed":false,"internalType":"address","name":"previousAdmin","type":"address"},{"indexed":false,"internalType":"address","name":"newAdmin","type":"address"}],"name":"AdminChanged","type":"event"},{"anonymous":false,"inputs":[{"indexed":true,"internalType":"address","name":"beacon","type":"address"}],"name":"BeaconUpgraded","type":"event"},{"anonymous":false,"inputs":[{"indexed":true,"internalType":"address","name":"user","type":"address"},{"indexed":false,"internalType":"address","name":"token","type":"address"},{"indexed":false,"internalType":"uint256","name":"amount","type":"uint256"}],"name":"ClaimRewards","type":"event"},{"anonymous":false,"inputs":[{"indexed":false,"internalType":"uint8","name":"version","type":"uint8"}],"name":"Initialized","type":"event"},{"anonymous":false,"inputs":[{"indexed":true,"internalType":"address","name":"previousOwner","type":"address"},{"indexed":true,"internalType":"address","name":"newOwner","type":"address"}],"name":"OwnershipTransferred","type":"event"},{"anonymous":false,"inputs":[{"indexed":true,"internalType":"address","name":"user","type":"address"},{"indexed":false,"internalType":"address","name":"token","type":"address"},{"indexed":false,"internalType":"uint256","name":"amount","type":"uint256"}],"name":"Stake","type":"event"},{"anonymous":false,"inputs":[{"indexed":true,"internalType":"address","name":"implementation","type":"address"}],"name":"Upgraded","type":"event"},{"anonymous":false,"inputs":[{"indexed":true,"internalType":"address","name":"user","type":"address"},{"indexed":false,"internalType":"address","name":"token","type":"address"},{"indexed":false,"internalType":"uint256","name":"amount","type":"uint256"}],"name":"Withdraw","type":"event"},{"inputs":[{"internalType":"address","name":"token_","type":"address"}],"name":"addToken","outputs":[],"stateMutability":"nonpayable","type":"function"},{"inputs":[{"internalType":"address","name":"token_","type":"address"}],"name":"claimRewards","outputs":[],"stateMutability":"nonpayable","type":"function"},{"inputs":[{"internalType":"address","name":"account_","type":"address"},{"internalType":"address","name":"token_","type":"address"}],"name":"earned","outputs":[{"internalType":"uint256","name":"","type":"uint256"}],"stateMutability":"view","type":"function"},{"inputs":[{"internalType":"address","name":"priceFeed_","type":"address"},{"internalType":"uint256","name":"amount_","type":"uint256"}],"name":"getUsdValue","outputs":[{"internalType":"uint256","name":"","type":"uint256"}],"stateMutability":"view","type":"function"},{"inputs":[{"internalType":"address","name":"token_","type":"address"}],"name":"getUserStake","outputs":[{"internalType":"uint256","name":"","type":"uint256"}],"stateMutability":"view","type":"function"},{"inputs":[{"internalType":"address","name":"rewardTokenAddress_","type":"address"},{"internalType":"address","name":"uniswapV2Factory_","type":"address"},{"internalType":"address","name":"quote_","type":"address"}],"name":"initialize","outputs":[],"stateMutability":"nonpayable","type":"function"},{"inputs":[],"name":"owner","outputs":[{"internalType":"address","name":"","type":"address"}],"stateMutability":"view","type":"function"},{"inputs":[],"name":"proxiableUUID","outputs":[{"internalType":"bytes32","name":"","type":"bytes32"}],"stateMutability":"view","type":"function"},{"inputs":[],"name":"renounceOwnership","outputs":[],"stateMutability":"nonpayable","type":"function"},{"inputs":[{"internalType":"address","name":"token_","type":"address"},{"internalType":"uint256","name":"amount_","type":"uint256"}],"name":"stake","outputs":[],"stateMutability":"nonpayable","type":"function"},{"inputs":[{"internalType":"address","name":"newOwner","type":"address"}],"name":"transferOwnership","outputs":[],"stateMutability":"nonpayable","type":"function"},{"inputs":[{"internalType":"address","name":"newImplementation","type":"address"}],"name":"upgradeTo","outputs":[],"stateMutability":"nonpayable","type":"function"},{"inputs":[{"internalType":"address","name":"newImplementation","type":"address"},{"internalType":"bytes","name":"data","type":"bytes"}],"name":"upgradeToAndCall","outputs":[],"stateMutability":"payable","type":"function"},{"inputs":[{"internalType":"address","name":"token_","type":"address"},{"internalType":"uint256","name":"amount_","type":"uint256"}],"name":"withdraw","outputs":[],"stateMutability":"nonpayable","type":"function"}],"bytecode":"0x60a06040523073ffffffffffffffffffffffffffffffffffffffff1660809073ffffffffffffffffffffffffffffffffffffffff1681525034801561004357600080fd5b5060805161409161007b60003960008181610570015281816105fe015281816106f801528181610786015261083601526140916000f3fe6080604052600436106100dd5760003560e01c8063bbadc93a1161007f578063d48bfca711610059578063d48bfca71461029d578063ef5cfb8c146102c6578063f2fde38b146102ef578063f3fef3a314610318576100dd565b8063bbadc93a146101fa578063c0c53b8b14610237578063c660d11214610260576100dd565b806352d1902d116100bb57806352d1902d14610164578063715018a61461018f5780638da5cb5b146101a6578063adc9772e146101d1576100dd565b8063211dc32d146100e25780633659cfe61461011f5780634f1ef28614610148575b600080fd5b3480156100ee57600080fd5b5061010960048036038101906101049190612cd2565b610341565b6040516101169190612d2b565b60405180910390f35b34801561012b57600080fd5b5061014660048036038101906101419190612d46565b61056e565b005b610162600480360381019061015d9190612eb9565b6106f6565b005b34801561017057600080fd5b50610179610832565b6040516101869190612f2e565b60405180910390f35b34801561019b57600080fd5b506101a46108eb565b005b3480156101b257600080fd5b506101bb6108ff565b6040516101c89190612f58565b60405180910390f35b3480156101dd57600080fd5b506101f860048036038101906101f39190612f9f565b610929565b005b34801561020657600080fd5b50610221600480360381019061021c9190612d46565b610d9f565b60405161022e9190612d2b565b60405180910390f35b34801561024357600080fd5b5061025e60048036038101906102599190612fdf565b610e26565b005b34801561026c57600080fd5b5061028760048036038101906102829190612f9f565b611032565b6040516102949190612d2b565b60405180910390f35b3480156102a957600080fd5b506102c460048036038101906102bf9190612d46565b61116c565b005b3480156102d257600080fd5b506102ed60048036038101906102e89190612d46565b61131d565b005b3480156102fb57600080fd5b5061031660048036038101906103119190612d46565b6117eb565b005b34801561032457600080fd5b5061033f600480360381019061033a9190612f9f565b61186e565b005b6000806103cb8361010160008773ffffffffffffffffffffffffffffffffffffffff1673ffffffffffffffffffffffffffffffffffffffff16815260200190815260200160002060008673ffffffffffffffffffffffffffffffffffffffff1673ffffffffffffffffffffffffffffffffffffffff16815260200190815260200160002054611ed6565b905061056561010560008673ffffffffffffffffffffffffffffffffffffffff1673ffffffffffffffffffffffffffffffffffffffff16815260200190815260200160002060008573ffffffffffffffffffffffffffffffffffffffff1673ffffffffffffffffffffffffffffffffffffffff1681526020019081526020016000205473__$b4cafc809c0c4516e81e1b7a7f4901dbfc$__63761fdad68461010460008a73ffffffffffffffffffffffffffffffffffffffff1673ffffffffffffffffffffffffffffffffffffffff16815260200190815260200160002060008973ffffffffffffffffffffffffffffffffffffffff1673ffffffffffffffffffffffffffffffffffffffff168152602001908152602001600020546104ef6121d7565b6104f99190613061565b6040518363ffffffff1660e01b81526004016105169291906130a4565b602060405180830381865af4158015610533573d6000803e3d6000fd5b505050506040513d601f19601f8201168201806040525081019061055791906130e2565b6122a890919063ffffffff16565b91505092915050565b7f000000000000000000000000000000000000000000000000000000000000000073ffffffffffffffffffffffffffffffffffffffff163073ffffffffffffffffffffffffffffffffffffffff16036105fc576040517f08c379a00000000000000000000000000000000000000000000000000000000081526004016105f390613192565b60405180910390fd5b7f000000000000000000000000000000000000000000000000000000000000000073ffffffffffffffffffffffffffffffffffffffff1661063b6122be565b73ffffffffffffffffffffffffffffffffffffffff1614610691576040517f08c379a000000000000000000000000000000000000000000000000000000000815260040161068890613224565b60405180910390fd5b61069a81612315565b6106f381600067ffffffffffffffff8111156106b9576106b8612d8e565b5b6040519080825280601f01601f1916602001820160405280156106eb5781602001600182028036833780820191505090505b506000612320565b50565b7f000000000000000000000000000000000000000000000000000000000000000073ffffffffffffffffffffffffffffffffffffffff163073ffffffffffffffffffffffffffffffffffffffff1603610784576040517f08c379a000000000000000000000000000000000000000000000000000000000815260040161077b90613192565b60405180910390fd5b7f000000000000000000000000000000000000000000000000000000000000000073ffffffffffffffffffffffffffffffffffffffff166107c36122be565b73ffffffffffffffffffffffffffffffffffffffff1614610819576040517f08c379a000000000000000000000000000000000000000000000000000000000815260040161081090613224565b60405180910390fd5b61082282612315565b61082e82826001612320565b5050565b60007f000000000000000000000000000000000000000000000000000000000000000073ffffffffffffffffffffffffffffffffffffffff163073ffffffffffffffffffffffffffffffffffffffff16146108c2576040517f08c379a00000000000000000000000000000000000000000000000000000000081526004016108b9906132b6565b60405180910390fd5b7f360894a13ba1a3210667c828492db98dca3e2076cc3735a920a3ca505d382bbc60001b905090565b6108f361248e565b6108fd600061250c565b565b6000609760009054906101000a900473ffffffffffffffffffffffffffffffffffffffff16905090565b81600073ffffffffffffffffffffffffffffffffffffffff168173ffffffffffffffffffffffffffffffffffffffff1603610999576040517f08c379a000000000000000000000000000000000000000000000000000000000815260040161099090613322565b60405180910390fd5b8261010360008273ffffffffffffffffffffffffffffffffffffffff1673ffffffffffffffffffffffffffffffffffffffff16815260200190815260200160002060009054906101000a900460ff16610a27576040517f08c379a0000000000000000000000000000000000000000000000000000000008152600401610a1e9061338e565b60405180910390fd5b3384610a316121d7565b60ff819055504360fe81905550610a488282610341565b61010560008473ffffffffffffffffffffffffffffffffffffffff1673ffffffffffffffffffffffffffffffffffffffff16815260200190815260200160002060008373ffffffffffffffffffffffffffffffffffffffff1673ffffffffffffffffffffffffffffffffffffffff1681526020019081526020016000208190555060ff5461010460008473ffffffffffffffffffffffffffffffffffffffff1673ffffffffffffffffffffffffffffffffffffffff16815260200190815260200160002060008373ffffffffffffffffffffffffffffffffffffffff1673ffffffffffffffffffffffffffffffffffffffff16815260200190815260200160002081905550610b556125d2565b60008511610b98576040517f08c379a0000000000000000000000000000000000000000000000000000000008152600401610b8f906133fa565b60405180910390fd5b8461010160003373ffffffffffffffffffffffffffffffffffffffff1673ffffffffffffffffffffffffffffffffffffffff16815260200190815260200160002060008873ffffffffffffffffffffffffffffffffffffffff1673ffffffffffffffffffffffffffffffffffffffff1681526020019081526020016000206000828254610c25919061341a565b925050819055508461010260008873ffffffffffffffffffffffffffffffffffffffff1673ffffffffffffffffffffffffffffffffffffffff1681526020019081526020016000206000828254610c7c919061341a565b9250508190555060008673ffffffffffffffffffffffffffffffffffffffff166323b872dd3330896040518463ffffffff1660e01b8152600401610cc29392919061344e565b6020604051808303816000875af1158015610ce1573d6000803e3d6000fd5b505050506040513d601f19601f82011682018060405250810190610d0591906134bd565b905080610d3e576040517f96d6c02400000000000000000000000000000000000000000000000000000000815260040160405180910390fd5b3373ffffffffffffffffffffffffffffffffffffffff167f99039fcf0a98f484616c5196ee8b2ecfa971babf0b519848289ea4db381f85f78888604051610d869291906134ea565b60405180910390a250610d97612621565b505050505050565b600061010160003373ffffffffffffffffffffffffffffffffffffffff1673ffffffffffffffffffffffffffffffffffffffff16815260200190815260200160002060008373ffffffffffffffffffffffffffffffffffffffff1673ffffffffffffffffffffffffffffffffffffffff168152602001908152602001600020549050919050565b60008060019054906101000a900460ff16159050808015610e575750600160008054906101000a900460ff1660ff16105b80610e845750610e663061262b565b158015610e835750600160008054906101000a900460ff1660ff16145b5b610ec3576040517f08c379a0000000000000000000000000000000000000000000000000000000008152600401610eba90613585565b60405180910390fd5b60016000806101000a81548160ff021916908360ff1602179055508015610f00576001600060016101000a81548160ff0219169083151502179055505b610f0861264e565b610f106126a7565b8360fb60006101000a81548173ffffffffffffffffffffffffffffffffffffffff021916908373ffffffffffffffffffffffffffffffffffffffff1602179055508260fc60006101000a81548173ffffffffffffffffffffffffffffffffffffffff021916908373ffffffffffffffffffffffffffffffffffffffff1602179055508160fd60006101000a81548173ffffffffffffffffffffffffffffffffffffffff021916908373ffffffffffffffffffffffffffffffffffffffff160217905550801561102c5760008060016101000a81548160ff0219169083151502179055507f7f26b83ff96e1f2b6a682f133852f6798a09c465da95921460cefb3847402498600160405161102391906135f7565b60405180910390a15b50505050565b60008082116110445760009050611166565b600083905060008173ffffffffffffffffffffffffffffffffffffffff1663feaf968c6040518163ffffffff1660e01b815260040160a060405180830381865afa158015611096573d6000803e3d6000fd5b505050506040513d601f19601f820116820180604052508101906110ba919061368a565b505050915050600081136110d1576110d0613705565b5b60006402540be400826110e49190613734565b905073__$b4cafc809c0c4516e81e1b7a7f4901dbfc$__63761fdad686836040518363ffffffff1660e01b815260040161111f9291906130a4565b602060405180830381865af415801561113c573d6000803e3d6000fd5b505050506040513d601f19601f8201168201806040525081019061116091906130e2565b93505050505b92915050565b61117461248e565b80600073ffffffffffffffffffffffffffffffffffffffff168173ffffffffffffffffffffffffffffffffffffffff16036111e4576040517f08c379a00000000000000000000000000000000000000000000000000000000081526004016111db90613322565b60405180910390fd5b6112226040518060400160405280600f81526020017f616464546f6b656e2063616c6c65640000000000000000000000000000000000815250612700565b610100829080600181540180825580915050600190039060005260206000200160009091909190916101000a81548173ffffffffffffffffffffffffffffffffffffffff021916908373ffffffffffffffffffffffffffffffffffffffff160217905550600161010360008473ffffffffffffffffffffffffffffffffffffffff1673ffffffffffffffffffffffffffffffffffffffff16815260200190815260200160002060006101000a81548160ff0219169083151502179055507f02fb12ee42ca4026d39d2102e2e3d3fcb4d12c158f8e0028f2f1eed6cf33ecbe8260016040516113119291906137bb565b60405180910390a15050565b80600073ffffffffffffffffffffffffffffffffffffffff168173ffffffffffffffffffffffffffffffffffffffff160361138d576040517f08c379a000000000000000000000000000000000000000000000000000000000815260040161138490613322565b60405180910390fd5b8161010360008273ffffffffffffffffffffffffffffffffffffffff1673ffffffffffffffffffffffffffffffffffffffff16815260200190815260200160002060009054906101000a900460ff1661141b576040517f08c379a00000000000000000000000000000000000000000000000000000000081526004016114129061338e565b60405180910390fd5b33836114256121d7565b60ff819055504360fe8190555061143c8282610341565b61010560008473ffffffffffffffffffffffffffffffffffffffff1673ffffffffffffffffffffffffffffffffffffffff16815260200190815260200160002060008373ffffffffffffffffffffffffffffffffffffffff1673ffffffffffffffffffffffffffffffffffffffff1681526020019081526020016000208190555060ff5461010460008473ffffffffffffffffffffffffffffffffffffffff1673ffffffffffffffffffffffffffffffffffffffff16815260200190815260200160002060008373ffffffffffffffffffffffffffffffffffffffff1673ffffffffffffffffffffffffffffffffffffffff168152602001908152602001600020819055506115496125d2565b60006115553387610341565b905060008111611591576040517fa00c9b2700000000000000000000000000000000000000000000000000000000815260040160405180910390fd5b600061010560003373ffffffffffffffffffffffffffffffffffffffff1673ffffffffffffffffffffffffffffffffffffffff16815260200190815260200160002060008873ffffffffffffffffffffffffffffffffffffffff1673ffffffffffffffffffffffffffffffffffffffff16815260200190815260200160002081905550600060fb60009054906101000a900473ffffffffffffffffffffffffffffffffffffffff1673ffffffffffffffffffffffffffffffffffffffff1663a9059cbb3360fb60009054906101000a900473ffffffffffffffffffffffffffffffffffffffff1673ffffffffffffffffffffffffffffffffffffffff166370a08231336040518263ffffffff1660e01b81526004016116b09190612f58565b602060405180830381865afa1580156116cd573d6000803e3d6000fd5b505050506040513d601f19601f820116820180604052508101906116f191906130e2565b6040518363ffffffff1660e01b815260040161170e9291906134ea565b6020604051808303816000875af115801561172d573d6000803e3d6000fd5b505050506040513d601f19601f8201168201806040525081019061175191906134bd565b90508061178a576040517f96d6c02400000000000000000000000000000000000000000000000000000000815260040160405180910390fd5b3373ffffffffffffffffffffffffffffffffffffffff167f9aa05b3d70a9e3e2f004f039648839560576334fb45c81f91b6db03ad9e2efc988846040516117d29291906134ea565b60405180910390a250506117e4612621565b5050505050565b6117f361248e565b600073ffffffffffffffffffffffffffffffffffffffff168173ffffffffffffffffffffffffffffffffffffffff1603611862576040517f08c379a000000000000000000000000000000000000000000000000000000000815260040161185990613856565b60405180910390fd5b61186b8161250c565b50565b81600073ffffffffffffffffffffffffffffffffffffffff168173ffffffffffffffffffffffffffffffffffffffff16036118de576040517f08c379a00000000000000000000000000000000000000000000000000000000081526004016118d590613322565b60405180910390fd5b8261010360008273ffffffffffffffffffffffffffffffffffffffff1673ffffffffffffffffffffffffffffffffffffffff16815260200190815260200160002060009054906101000a900460ff1661196c576040517f08c379a00000000000000000000000000000000000000000000000000000000081526004016119639061338e565b60405180910390fd5b33846119766121d7565b60ff819055504360fe8190555061198d8282610341565b61010560008473ffffffffffffffffffffffffffffffffffffffff1673ffffffffffffffffffffffffffffffffffffffff16815260200190815260200160002060008373ffffffffffffffffffffffffffffffffffffffff1673ffffffffffffffffffffffffffffffffffffffff1681526020019081526020016000208190555060ff5461010460008473ffffffffffffffffffffffffffffffffffffffff1673ffffffffffffffffffffffffffffffffffffffff16815260200190815260200160002060008373ffffffffffffffffffffffffffffffffffffffff1673ffffffffffffffffffffffffffffffffffffffff16815260200190815260200160002081905550611a9a6125d2565b60007fffffffffffffffffffffffffffffffffffffffffffffffffffffffffffffffff8614611ac95785611b48565b61010160003373ffffffffffffffffffffffffffffffffffffffff1673ffffffffffffffffffffffffffffffffffffffff16815260200190815260200160002060008873ffffffffffffffffffffffffffffffffffffffff1673ffffffffffffffffffffffffffffffffffffffff168152602001908152602001600020545b905060008611611b8d576040517f08c379a0000000000000000000000000000000000000000000000000000000008152600401611b84906133fa565b60405180910390fd5b8061010160003373ffffffffffffffffffffffffffffffffffffffff1673ffffffffffffffffffffffffffffffffffffffff16815260200190815260200160002060008973ffffffffffffffffffffffffffffffffffffffff1673ffffffffffffffffffffffffffffffffffffffff168152602001908152602001600020541015611c4d576040517f08c379a0000000000000000000000000000000000000000000000000000000008152600401611c44906138c2565b60405180910390fd5b8061010260008973ffffffffffffffffffffffffffffffffffffffff1673ffffffffffffffffffffffffffffffffffffffff168152602001908152602001600020541015611cd0576040517f08c379a0000000000000000000000000000000000000000000000000000000008152600401611cc7906138c2565b60405180910390fd5b8061010160003373ffffffffffffffffffffffffffffffffffffffff1673ffffffffffffffffffffffffffffffffffffffff16815260200190815260200160002060008973ffffffffffffffffffffffffffffffffffffffff1673ffffffffffffffffffffffffffffffffffffffff1681526020019081526020016000206000828254611d5d9190613061565b925050819055508061010260008973ffffffffffffffffffffffffffffffffffffffff1673ffffffffffffffffffffffffffffffffffffffff1681526020019081526020016000206000828254611db49190613061565b9250508190555060008773ffffffffffffffffffffffffffffffffffffffff1663a9059cbb33846040518363ffffffff1660e01b8152600401611df89291906134ea565b6020604051808303816000875af1158015611e17573d6000803e3d6000fd5b505050506040513d601f19601f82011682018060405250810190611e3b91906134bd565b905080611e74576040517f96d6c02400000000000000000000000000000000000000000000000000000000815260040160405180910390fd5b3373ffffffffffffffffffffffffffffffffffffffff167f9b1bfa7fa9ee420a16e124f794c35ac9f90472acc99140eb2f6447c714cad8eb8984604051611ebc9291906134ea565b60405180910390a25050611ece612621565b505050505050565b60008261010360008273ffffffffffffffffffffffffffffffffffffffff1673ffffffffffffffffffffffffffffffffffffffff16815260200190815260200160002060009054906101000a900460ff16611f66576040517f08c379a0000000000000000000000000000000000000000000000000000000008152600401611f5d9061338e565b60405180910390fd5b600060fc60009054906101000a900473ffffffffffffffffffffffffffffffffffffffff1673ffffffffffffffffffffffffffffffffffffffff1663e6a439058660fd60009054906101000a900473ffffffffffffffffffffffffffffffffffffffff166040518363ffffffff1660e01b8152600401611fe79291906138e2565b602060405180830381865afa158015612004573d6000803e3d6000fd5b505050506040513d601f19601f820116820180604052508101906120289190613920565b90506000808273ffffffffffffffffffffffffffffffffffffffff16630902f1ac6040518163ffffffff1660e01b8152600401606060405180830381865afa158015612078573d6000803e3d6000fd5b505050506040513d601f19601f8201168201806040525081019061209c91906139cf565b509150915073__$b4cafc809c0c4516e81e1b7a7f4901dbfc$__63761fdad68761216d6120f2866dffffffffffffffffffffffffffff16866dffffffffffffffffffffffffffff1661279990919063ffffffff16565b73__$b4cafc809c0c4516e81e1b7a7f4901dbfc$__633dca36386040518163ffffffff1660e01b8152600401602060405180830381865af415801561213b573d6000803e3d6000fd5b505050506040513d601f19601f8201168201806040525081019061215f91906130e2565b61279990919063ffffffff16565b6040518363ffffffff1660e01b815260040161218a9291906130a4565b602060405180830381865af41580156121a7573d6000803e3d6000fd5b505050506040513d601f19601f820116820180604052508101906121cb91906130e2565b94505050505092915050565b6000806121e26127af565b9050600081036121f75760ff549150506122a5565b8073__$b4cafc809c0c4516e81e1b7a7f4901dbfc$__633dca36386040518163ffffffff1660e01b8152600401602060405180830381865af4158015612241573d6000803e3d6000fd5b505050506040513d601f19601f8201168201806040525081019061226591906130e2565b6103e860fe54436122769190613061565b6122809190613a22565b61228a9190613a22565b6122949190613a93565b60ff546122a1919061341a565b9150505b90565b600081836122b6919061341a565b905092915050565b60006122ec7f360894a13ba1a3210667c828492db98dca3e2076cc3735a920a3ca505d382bbc60001b6128d7565b60000160009054906101000a900473ffffffffffffffffffffffffffffffffffffffff16905090565b61231d61248e565b50565b61234c7f4910fdfa16fed3260ed0e7147f7cc6da11a60208b5b9406d12a635614ffd914360001b6128e1565b60000160009054906101000a900460ff16156123705761236b836128eb565b612489565b8273ffffffffffffffffffffffffffffffffffffffff166352d1902d6040518163ffffffff1660e01b8152600401602060405180830381865afa9250505080156123d857506040513d601f19601f820116820180604052508101906123d59190613af0565b60015b612417576040517f08c379a000000000000000000000000000000000000000000000000000000000815260040161240e90613b8f565b60405180910390fd5b7f360894a13ba1a3210667c828492db98dca3e2076cc3735a920a3ca505d382bbc60001b811461247c576040517f08c379a000000000000000000000000000000000000000000000000000000000815260040161247390613c21565b60405180910390fd5b506124888383836129a4565b5b505050565b6124966129d0565b73ffffffffffffffffffffffffffffffffffffffff166124b46108ff565b73ffffffffffffffffffffffffffffffffffffffff161461250a576040517f08c379a000000000000000000000000000000000000000000000000000000000815260040161250190613c8d565b60405180910390fd5b565b6000609760009054906101000a900473ffffffffffffffffffffffffffffffffffffffff16905081609760006101000a81548173ffffffffffffffffffffffffffffffffffffffff021916908373ffffffffffffffffffffffffffffffffffffffff1602179055508173ffffffffffffffffffffffffffffffffffffffff168173ffffffffffffffffffffffffffffffffffffffff167f8be0079c531659141344cd1fd0a4f28419497f9722a3daafe3b4186f6b6457e060405160405180910390a35050565b600260c95403612617576040517f08c379a000000000000000000000000000000000000000000000000000000000815260040161260e90613cf9565b60405180910390fd5b600260c981905550565b600160c981905550565b6000808273ffffffffffffffffffffffffffffffffffffffff163b119050919050565b600060019054906101000a900460ff1661269d576040517f08c379a000000000000000000000000000000000000000000000000000000000815260040161269490613d8b565b60405180910390fd5b6126a56129d8565b565b600060019054906101000a900460ff166126f6576040517f08c379a00000000000000000000000000000000000000000000000000000000081526004016126ed90613d8b565b60405180910390fd5b6126fe612a39565b565b612796816040516024016127149190613e19565b6040516020818303038152906040527f41304fac000000000000000000000000000000000000000000000000000000007bffffffffffffffffffffffffffffffffffffffffffffffffffffffff19166020820180517bffffffffffffffffffffffffffffffffffffffffffffffffffffffff8381831617835250505050612a92565b50565b600081836127a79190613a93565b905092915050565b600080610100805490509050600080600090505b828110156128ce57600061010082815481106127e2576127e1613e3b565b5b9060005260206000200160009054906101000a900473ffffffffffffffffffffffffffffffffffffffff16905061010360008273ffffffffffffffffffffffffffffffffffffffff1673ffffffffffffffffffffffffffffffffffffffff16815260200190815260200160002060009054906101000a900460ff16156128ba576128ac8161010260008473ffffffffffffffffffffffffffffffffffffffff1673ffffffffffffffffffffffffffffffffffffffff16815260200190815260200160002054611ed6565b836128b7919061341a565b92505b5080806128c690613e6a565b9150506127c3565b50809250505090565b6000819050919050565b6000819050919050565b6128f48161262b565b612933576040517f08c379a000000000000000000000000000000000000000000000000000000000815260040161292a90613f24565b60405180910390fd5b806129607f360894a13ba1a3210667c828492db98dca3e2076cc3735a920a3ca505d382bbc60001b6128d7565b60000160006101000a81548173ffffffffffffffffffffffffffffffffffffffff021916908373ffffffffffffffffffffffffffffffffffffffff16021790555050565b6129ad83612abb565b6000825111806129ba5750805b156129cb576129c98383612b0a565b505b505050565b600033905090565b600060019054906101000a900460ff16612a27576040517f08c379a0000000000000000000000000000000000000000000000000000000008152600401612a1e90613d8b565b60405180910390fd5b612a37612a326129d0565b61250c565b565b600060019054906101000a900460ff16612a88576040517f08c379a0000000000000000000000000000000000000000000000000000000008152600401612a7f90613d8b565b60405180910390fd5b600160c981905550565b60008151905060006a636f6e736f6c652e6c6f679050602083016000808483855afa5050505050565b612ac4816128eb565b8073ffffffffffffffffffffffffffffffffffffffff167fbc7cd75a20ee27fd9adebab32041f755214dbc6bffa90cc0225b39da2e5c2d3b60405160405180910390a250565b6060612b158361262b565b612b54576040517f08c379a0000000000000000000000000000000000000000000000000000000008152600401612b4b90613fb6565b60405180910390fd5b6000808473ffffffffffffffffffffffffffffffffffffffff1684604051612b7c919061401d565b600060405180830381855af49150503d8060008114612bb7576040519150601f19603f3d011682016040523d82523d6000602084013e612bbc565b606091505b5091509150612be4828260405180606001604052806027815260200161403560279139612bee565b9250505092915050565b60608315612bfe57829050612c09565b612c088383612c10565b5b9392505050565b600082511115612c235781518083602001fd5b806040517f08c379a0000000000000000000000000000000000000000000000000000000008152600401612c579190613e19565b60405180910390fd5b6000604051905090565b600080fd5b600080fd5b600073ffffffffffffffffffffffffffffffffffffffff82169050919050565b6000612c9f82612c74565b9050919050565b612caf81612c94565b8114612cba57600080fd5b50565b600081359050612ccc81612ca6565b92915050565b60008060408385031215612ce957612ce8612c6a565b5b6000612cf785828601612cbd565b9250506020612d0885828601612cbd565b9150509250929050565b6000819050919050565b612d2581612d12565b82525050565b6000602082019050612d406000830184612d1c565b92915050565b600060208284031215612d5c57612d5b612c6a565b5b6000612d6a84828501612cbd565b91505092915050565b600080fd5b600080fd5b6000601f19601f8301169050919050565b7f4e487b7100000000000000000000000000000000000000000000000000000000600052604160045260246000fd5b612dc682612d7d565b810181811067ffffffffffffffff82111715612de557612de4612d8e565b5b80604052505050565b6000612df8612c60565b9050612e048282612dbd565b919050565b600067ffffffffffffffff821115612e2457612e23612d8e565b5b612e2d82612d7d565b9050602081019050919050565b82818337600083830152505050565b6000612e5c612e5784612e09565b612dee565b905082815260208101848484011115612e7857612e77612d78565b5b612e83848285612e3a565b509392505050565b600082601f830112612ea057612e9f612d73565b5b8135612eb0848260208601612e49565b91505092915050565b60008060408385031215612ed057612ecf612c6a565b5b6000612ede85828601612cbd565b925050602083013567ffffffffffffffff811115612eff57612efe612c6f565b5b612f0b85828601612e8b565b9150509250929050565b6000819050919050565b612f2881612f15565b82525050565b6000602082019050612f436000830184612f1f565b92915050565b612f5281612c94565b82525050565b6000602082019050612f6d6000830184612f49565b92915050565b612f7c81612d12565b8114612f8757600080fd5b50565b600081359050612f9981612f73565b92915050565b60008060408385031215612fb657612fb5612c6a565b5b6000612fc485828601612cbd565b9250506020612fd585828601612f8a565b9150509250929050565b600080600060608486031215612ff857612ff7612c6a565b5b600061300686828701612cbd565b935050602061301786828701612cbd565b925050604061302886828701612cbd565b9150509250925092565b7f4e487b7100000000000000000000000000000000000000000000000000000000600052601160045260246000fd5b600061306c82612d12565b915061307783612d12565b925082820390508181111561308f5761308e613032565b5b92915050565b61309e81612d12565b82525050565b60006040820190506130b96000830185613095565b6130c66020830184613095565b9392505050565b6000815190506130dc81612f73565b92915050565b6000602082840312156130f8576130f7612c6a565b5b6000613106848285016130cd565b91505092915050565b600082825260208201905092915050565b7f46756e6374696f6e206d7573742062652063616c6c6564207468726f7567682060008201527f64656c656761746563616c6c0000000000000000000000000000000000000000602082015250565b600061317c602c8361310f565b915061318782613120565b604082019050919050565b600060208201905081810360008301526131ab8161316f565b9050919050565b7f46756e6374696f6e206d7573742062652063616c6c6564207468726f7567682060008201527f6163746976652070726f78790000000000000000000000000000000000000000602082015250565b600061320e602c8361310f565b9150613219826131b2565b604082019050919050565b6000602082019050818103600083015261323d81613201565b9050919050565b7f555550535570677261646561626c653a206d757374206e6f742062652063616c60008201527f6c6564207468726f7567682064656c656761746563616c6c0000000000000000602082015250565b60006132a060388361310f565b91506132ab82613244565b604082019050919050565b600060208201905081810360008301526132cf81613293565b9050919050565b7f57726f6e6720616464726573732070726f766964656400000000000000000000600082015250565b600061330c60168361310f565b9150613317826132d6565b602082019050919050565b6000602082019050818103600083015261333b816132ff565b9050919050565b7f746f6b656e206e6f7420616c6c6f776564000000000000000000000000000000600082015250565b600061337860118361310f565b915061338382613342565b602082019050919050565b600060208201905081810360008301526133a78161336b565b9050919050565b7f416d6f756e742073686f756c642067726561746572207468616e207a65726f00600082015250565b60006133e4601f8361310f565b91506133ef826133ae565b602082019050919050565b60006020820190508181036000830152613413816133d7565b9050919050565b600061342582612d12565b915061343083612d12565b925082820190508082111561344857613447613032565b5b92915050565b60006060820190506134636000830186612f49565b6134706020830185612f49565b61347d6040830184612d1c565b949350505050565b60008115159050919050565b61349a81613485565b81146134a557600080fd5b50565b6000815190506134b781613491565b92915050565b6000602082840312156134d3576134d2612c6a565b5b60006134e1848285016134a8565b91505092915050565b60006040820190506134ff6000830185612f49565b61350c6020830184612d1c565b9392505050565b7f496e697469616c697a61626c653a20636f6e747261637420697320616c72656160008201527f647920696e697469616c697a6564000000000000000000000000000000000000602082015250565b600061356f602e8361310f565b915061357a82613513565b604082019050919050565b6000602082019050818103600083015261359e81613562565b9050919050565b6000819050919050565b600060ff82169050919050565b6000819050919050565b60006135e16135dc6135d7846135a5565b6135bc565b6135af565b9050919050565b6135f1816135c6565b82525050565b600060208201905061360c60008301846135e8565b92915050565b600069ffffffffffffffffffff82169050919050565b61363181613612565b811461363c57600080fd5b50565b60008151905061364e81613628565b92915050565b6000819050919050565b61366781613654565b811461367257600080fd5b50565b6000815190506136848161365e565b92915050565b600080600080600060a086880312156136a6576136a5612c6a565b5b60006136b48882890161363f565b95505060206136c588828901613675565b94505060406136d6888289016130cd565b93505060606136e7888289016130cd565b92505060806136f88882890161363f565b9150509295509295909350565b7f4e487b7100000000000000000000000000000000000000000000000000000000600052600160045260246000fd5b600061373f82613654565b915061374a83613654565b925082820261375881613654565b91507f800000000000000000000000000000000000000000000000000000000000000084146000841216156137905761378f613032565b5b82820584148315176137a5576137a4613032565b5b5092915050565b6137b581613485565b82525050565b60006040820190506137d06000830185612f49565b6137dd60208301846137ac565b9392505050565b7f4f776e61626c653a206e6577206f776e657220697320746865207a65726f206160008201527f6464726573730000000000000000000000000000000000000000000000000000602082015250565b600061384060268361310f565b915061384b826137e4565b604082019050919050565b6000602082019050818103600083015261386f81613833565b9050919050565b7f4e6f7420656e6f7567682062616c616e63650000000000000000000000000000600082015250565b60006138ac60128361310f565b91506138b782613876565b602082019050919050565b600060208201905081810360008301526138db8161389f565b9050919050565b60006040820190506138f76000830185612f49565b6139046020830184612f49565b9392505050565b60008151905061391a81612ca6565b92915050565b60006020828403121561393657613935612c6a565b5b60006139448482850161390b565b91505092915050565b60006dffffffffffffffffffffffffffff82169050919050565b6139708161394d565b811461397b57600080fd5b50565b60008151905061398d81613967565b92915050565b600063ffffffff82169050919050565b6139ac81613993565b81146139b757600080fd5b50565b6000815190506139c9816139a3565b92915050565b6000806000606084860312156139e8576139e7612c6a565b5b60006139f68682870161397e565b9350506020613a078682870161397e565b9250506040613a18868287016139ba565b9150509250925092565b6000613a2d82612d12565b9150613a3883612d12565b9250828202613a4681612d12565b91508282048414831517613a5d57613a5c613032565b5b5092915050565b7f4e487b7100000000000000000000000000000000000000000000000000000000600052601260045260246000fd5b6000613a9e82612d12565b9150613aa983612d12565b925082613ab957613ab8613a64565b5b828204905092915050565b613acd81612f15565b8114613ad857600080fd5b50565b600081519050613aea81613ac4565b92915050565b600060208284031215613b0657613b05612c6a565b5b6000613b1484828501613adb565b91505092915050565b7f45524331393637557067726164653a206e657720696d706c656d656e7461746960008201527f6f6e206973206e6f742055555053000000000000000000000000000000000000602082015250565b6000613b79602e8361310f565b9150613b8482613b1d565b604082019050919050565b60006020820190508181036000830152613ba881613b6c565b9050919050565b7f45524331393637557067726164653a20756e737570706f727465642070726f7860008201527f6961626c65555549440000000000000000000000000000000000000000000000602082015250565b6000613c0b60298361310f565b9150613c1682613baf565b604082019050919050565b60006020820190508181036000830152613c3a81613bfe565b9050919050565b7f4f776e61626c653a2063616c6c6572206973206e6f7420746865206f776e6572600082015250565b6000613c7760208361310f565b9150613c8282613c41565b602082019050919050565b60006020820190508181036000830152613ca681613c6a565b9050919050565b7f5265656e7472616e637947756172643a207265656e7472616e742063616c6c00600082015250565b6000613ce3601f8361310f565b9150613cee82613cad565b602082019050919050565b60006020820190508181036000830152613d1281613cd6565b9050919050565b7f496e697469616c697a61626c653a20636f6e7472616374206973206e6f74206960008201527f6e697469616c697a696e67000000000000000000000000000000000000000000602082015250565b6000613d75602b8361310f565b9150613d8082613d19565b604082019050919050565b60006020820190508181036000830152613da481613d68565b9050919050565b600081519050919050565b60005b83811015613dd4578082015181840152602081019050613db9565b60008484015250505050565b6000613deb82613dab565b613df5818561310f565b9350613e05818560208601613db6565b613e0e81612d7d565b840191505092915050565b60006020820190508181036000830152613e338184613de0565b905092915050565b7f4e487b7100000000000000000000000000000000000000000000000000000000600052603260045260246000fd5b6000613e7582612d12565b91507fffffffffffffffffffffffffffffffffffffffffffffffffffffffffffffffff8203613ea757613ea6613032565b5b600182019050919050565b7f455243313936373a206e657720696d706c656d656e746174696f6e206973206e60008201527f6f74206120636f6e747261637400000000000000000000000000000000000000602082015250565b6000613f0e602d8361310f565b9150613f1982613eb2565b604082019050919050565b60006020820190508181036000830152613f3d81613f01565b9050919050565b7f416464726573733a2064656c65676174652063616c6c20746f206e6f6e2d636f60008201527f6e74726163740000000000000000000000000000000000000000000000000000602082015250565b6000613fa060268361310f565b9150613fab82613f44565b604082019050919050565b60006020820190508181036000830152613fcf81613f93565b9050919050565b600081519050919050565b600081905092915050565b6000613ff782613fd6565b6140018185613fe1565b9350614011818560208601613db6565b80840191505092915050565b60006140298284613fec565b91508190509291505056fe416464726573733a206c6f772d6c6576656c2064656c65676174652063616c6c206661696c6564a26469706673582212208bdf5d045d88f31b8e26ab5d6d555aa144efee63f39d21177ded5e1ea1df75dc64736f6c63430008110033","linkReferences":{"contracts/libraries/WadMath.sol":{"WadMath":[{"length":20,"start":1227},{"length":20,"start":4451},{"length":20,"start":8478},{"length":20,"start":8559},{"length":20,"start":8821}]}},"deployedLinkReferences":{"contracts/libraries/WadMath.sol":{"WadMath":[{"length":20,"start":1104},{"length":20,"start":4328},{"length":20,"start":8355},{"length":20,"start":8436},{"length":20,"start":8698}]}}}