{"_format":"hh-sol-artifact-1","contractName":"Staking","sourceName":"contracts/Staking.sol","abi":[{"inputs":[],"name":"NoRewardsError","type":"error"},{"inputs":[],"name":"TransferFailError","type":"error"},{"anonymous":false,"inputs":[{"indexed":false,"internalType":"address","name":"token","type":"address"},{"indexed":false,"internalType":"bool","name":"isAllowed","type":"bool"}],"name":"AddToken","type":"event"},{"anonymous":false,"inputs":[{"indexed":false,"internalType":"address","name":"previousAdmin","type":"address"},{"indexed":false,"internalType":"address","name":"newAdmin","type":"address"}],"name":"AdminChanged","type":"event"},{"anonymous":false,"inputs":[{"indexed":true,"internalType":"address","name":"beacon","type":"address"}],"name":"BeaconUpgraded","type":"event"},{"anonymous":false,"inputs":[{"indexed":true,"internalType":"address","name":"user","type":"address"},{"indexed":false,"internalType":"address","name":"token","type":"address"},{"indexed":false,"internalType":"uint256","name":"amount","type":"uint256"}],"name":"ClaimRewards","type":"event"},{"anonymous":false,"inputs":[{"indexed":false,"internalType":"uint8","name":"version","type":"uint8"}],"name":"Initialized","type":"event"},{"anonymous":false,"inputs":[{"indexed":true,"internalType":"address","name":"previousOwner","type":"address"},{"indexed":true,"internalType":"address","name":"newOwner","type":"address"}],"name":"OwnershipTransferred","type":"event"},{"anonymous":false,"inputs":[{"indexed":true,"internalType":"address","name":"user","type":"address"},{"indexed":false,"internalType":"address","name":"token","type":"address"},{"indexed":false,"internalType":"uint256","name":"amount","type":"uint256"}],"name":"Stake","type":"event"},{"anonymous":false,"inputs":[{"indexed":true,"internalType":"address","name":"implementation","type":"address"}],"name":"Upgraded","type":"event"},{"anonymous":false,"inputs":[{"indexed":true,"internalType":"address","name":"user","type":"address"},{"indexed":false,"internalType":"address","name":"token","type":"address"},{"indexed":false,"internalType":"uint256","name":"amount","type":"uint256"}],"name":"Withdraw","type":"event"},{"inputs":[{"internalType":"address","name":"token_","type":"address"}],"name":"addToken","outputs":[],"stateMutability":"nonpayable","type":"function"},{"inputs":[{"internalType":"address","name":"token_","type":"address"}],"name":"claimRewards","outputs":[],"stateMutability":"nonpayable","type":"function"},{"inputs":[{"internalType":"address","name":"account_","type":"address"},{"internalType":"address","name":"token_","type":"address"}],"name":"earned","outputs":[{"internalType":"uint256","name":"","type":"uint256"}],"stateMutability":"view","type":"function"},{"inputs":[{"internalType":"address","name":"priceFeed_","type":"address"},{"internalType":"uint256","name":"amount_","type":"uint256"}],"name":"getUsdValue","outputs":[{"internalType":"uint256","name":"","type":"uint256"}],"stateMutability":"view","type":"function"},{"inputs":[{"internalType":"address","name":"token_","type":"address"}],"name":"getUserStake","outputs":[{"internalType":"uint256","name":"","type":"uint256"}],"stateMutability":"view","type":"function"},{"inputs":[{"internalType":"address","name":"rewardTokenAddress_","type":"address"},{"internalType":"address","name":"uniswapV2Factory_","type":"address"},{"internalType":"address","name":"quote_","type":"address"}],"name":"initialize","outputs":[],"stateMutability":"nonpayable","type":"function"},{"inputs":[],"name":"owner","outputs":[{"internalType":"address","name":"","type":"address"}],"stateMutability":"view","type":"function"},{"inputs":[],"name":"proxiableUUID","outputs":[{"internalType":"bytes32","name":"","type":"bytes32"}],"stateMutability":"view","type":"function"},{"inputs":[],"name":"renounceOwnership","outputs":[],"stateMutability":"nonpayable","type":"function"},{"inputs":[{"internalType":"address","name":"token_","type":"address"},{"internalType":"uint256","name":"amount_","type":"uint256"}],"name":"stake","outputs":[],"stateMutability":"nonpayable","type":"function"},{"inputs":[{"internalType":"address","name":"newOwner","type":"address"}],"name":"transferOwnership","outputs":[],"stateMutability":"nonpayable","type":"function"},{"inputs":[{"internalType":"address","name":"newImplementation","type":"address"}],"name":"upgradeTo","outputs":[],"stateMutability":"nonpayable","type":"function"},{"inputs":[{"internalType":"address","name":"newImplementation","type":"address"},{"internalType":"bytes","name":"data","type":"bytes"}],"name":"upgradeToAndCall","outputs":[],"stateMutability":"payable","type":"function"},{"inputs":[{"internalType":"address","name":"token_","type":"address"},{"internalType":"uint256","name":"amount_","type":"uint256"}],"name":"withdraw","outputs":[],"stateMutability":"nonpayable","type":"function"}],"bytecode":"0x60a06040523073ffffffffffffffffffffffffffffffffffffffff1660809073ffffffffffffffffffffffffffffffffffffffff1681525034801561004357600080fd5b506080516140a361007b60003960008181610570015281816105fe015281816106f801528181610786015261083601526140a36000f3fe6080604052600436106100dd5760003560e01c8063bbadc93a1161007f578063d48bfca711610059578063d48bfca71461029d578063ef5cfb8c146102c6578063f2fde38b146102ef578063f3fef3a314610318576100dd565b8063bbadc93a146101fa578063c0c53b8b14610237578063c660d11214610260576100dd565b806352d1902d116100bb57806352d1902d14610164578063715018a61461018f5780638da5cb5b146101a6578063adc9772e146101d1576100dd565b8063211dc32d146100e25780633659cfe61461011f5780634f1ef28614610148575b600080fd5b3480156100ee57600080fd5b5061010960048036038101906101049190612ce4565b610341565b6040516101169190612d3d565b60405180910390f35b34801561012b57600080fd5b5061014660048036038101906101419190612d58565b61056e565b005b610162600480360381019061015d9190612ecb565b6106f6565b005b34801561017057600080fd5b50610179610832565b6040516101869190612f40565b60405180910390f35b34801561019b57600080fd5b506101a46108eb565b005b3480156101b257600080fd5b506101bb6108ff565b6040516101c89190612f6a565b60405180910390f35b3480156101dd57600080fd5b506101f860048036038101906101f39190612fb1565b610929565b005b34801561020657600080fd5b50610221600480360381019061021c9190612d58565b610d9f565b60405161022e9190612d3d565b60405180910390f35b34801561024357600080fd5b5061025e60048036038101906102599190612ff1565b610e26565b005b34801561026c57600080fd5b5061028760048036038101906102829190612fb1565b611032565b6040516102949190612d3d565b60405180910390f35b3480156102a957600080fd5b506102c460048036038101906102bf9190612d58565b61116c565b005b3480156102d257600080fd5b506102ed60048036038101906102e89190612d58565b61131d565b005b3480156102fb57600080fd5b5061031660048036038101906103119190612d58565b6117fd565b005b34801561032457600080fd5b5061033f600480360381019061033a9190612fb1565b611880565b005b6000806103cb8361010160008773ffffffffffffffffffffffffffffffffffffffff1673ffffffffffffffffffffffffffffffffffffffff16815260200190815260200160002060008673ffffffffffffffffffffffffffffffffffffffff1673ffffffffffffffffffffffffffffffffffffffff16815260200190815260200160002054611ee8565b905061056561010560008673ffffffffffffffffffffffffffffffffffffffff1673ffffffffffffffffffffffffffffffffffffffff16815260200190815260200160002060008573ffffffffffffffffffffffffffffffffffffffff1673ffffffffffffffffffffffffffffffffffffffff1681526020019081526020016000205473__$b4cafc809c0c4516e81e1b7a7f4901dbfc$__63761fdad68461010460008a73ffffffffffffffffffffffffffffffffffffffff1673ffffffffffffffffffffffffffffffffffffffff16815260200190815260200160002060008973ffffffffffffffffffffffffffffffffffffffff1673ffffffffffffffffffffffffffffffffffffffff168152602001908152602001600020546104ef6121e9565b6104f99190613073565b6040518363ffffffff1660e01b81526004016105169291906130b6565b602060405180830381865af4158015610533573d6000803e3d6000fd5b505050506040513d601f19601f8201168201806040525081019061055791906130f4565b6122ba90919063ffffffff16565b91505092915050565b7f000000000000000000000000000000000000000000000000000000000000000073ffffffffffffffffffffffffffffffffffffffff163073ffffffffffffffffffffffffffffffffffffffff16036105fc576040517f08c379a00000000000000000000000000000000000000000000000000000000081526004016105f3906131a4565b60405180910390fd5b7f000000000000000000000000000000000000000000000000000000000000000073ffffffffffffffffffffffffffffffffffffffff1661063b6122d0565b73ffffffffffffffffffffffffffffffffffffffff1614610691576040517f08c379a000000000000000000000000000000000000000000000000000000000815260040161068890613236565b60405180910390fd5b61069a81612327565b6106f381600067ffffffffffffffff8111156106b9576106b8612da0565b5b6040519080825280601f01601f1916602001820160405280156106eb5781602001600182028036833780820191505090505b506000612332565b50565b7f000000000000000000000000000000000000000000000000000000000000000073ffffffffffffffffffffffffffffffffffffffff163073ffffffffffffffffffffffffffffffffffffffff1603610784576040517f08c379a000000000000000000000000000000000000000000000000000000000815260040161077b906131a4565b60405180910390fd5b7f000000000000000000000000000000000000000000000000000000000000000073ffffffffffffffffffffffffffffffffffffffff166107c36122d0565b73ffffffffffffffffffffffffffffffffffffffff1614610819576040517f08c379a000000000000000000000000000000000000000000000000000000000815260040161081090613236565b60405180910390fd5b61082282612327565b61082e82826001612332565b5050565b60007f000000000000000000000000000000000000000000000000000000000000000073ffffffffffffffffffffffffffffffffffffffff163073ffffffffffffffffffffffffffffffffffffffff16146108c2576040517f08c379a00000000000000000000000000000000000000000000000000000000081526004016108b9906132c8565b60405180910390fd5b7f360894a13ba1a3210667c828492db98dca3e2076cc3735a920a3ca505d382bbc60001b905090565b6108f36124a0565b6108fd600061251e565b565b6000609760009054906101000a900473ffffffffffffffffffffffffffffffffffffffff16905090565b81600073ffffffffffffffffffffffffffffffffffffffff168173ffffffffffffffffffffffffffffffffffffffff1603610999576040517f08c379a000000000000000000000000000000000000000000000000000000000815260040161099090613334565b60405180910390fd5b8261010360008273ffffffffffffffffffffffffffffffffffffffff1673ffffffffffffffffffffffffffffffffffffffff16815260200190815260200160002060009054906101000a900460ff16610a27576040517f08c379a0000000000000000000000000000000000000000000000000000000008152600401610a1e906133a0565b60405180910390fd5b3384610a316121e9565b60ff819055504360fe81905550610a488282610341565b61010560008473ffffffffffffffffffffffffffffffffffffffff1673ffffffffffffffffffffffffffffffffffffffff16815260200190815260200160002060008373ffffffffffffffffffffffffffffffffffffffff1673ffffffffffffffffffffffffffffffffffffffff1681526020019081526020016000208190555060ff5461010460008473ffffffffffffffffffffffffffffffffffffffff1673ffffffffffffffffffffffffffffffffffffffff16815260200190815260200160002060008373ffffffffffffffffffffffffffffffffffffffff1673ffffffffffffffffffffffffffffffffffffffff16815260200190815260200160002081905550610b556125e4565b60008511610b98576040517f08c379a0000000000000000000000000000000000000000000000000000000008152600401610b8f9061340c565b60405180910390fd5b8461010160003373ffffffffffffffffffffffffffffffffffffffff1673ffffffffffffffffffffffffffffffffffffffff16815260200190815260200160002060008873ffffffffffffffffffffffffffffffffffffffff1673ffffffffffffffffffffffffffffffffffffffff1681526020019081526020016000206000828254610c25919061342c565b925050819055508461010260008873ffffffffffffffffffffffffffffffffffffffff1673ffffffffffffffffffffffffffffffffffffffff1681526020019081526020016000206000828254610c7c919061342c565b9250508190555060008673ffffffffffffffffffffffffffffffffffffffff166323b872dd3330896040518463ffffffff1660e01b8152600401610cc293929190613460565b6020604051808303816000875af1158015610ce1573d6000803e3d6000fd5b505050506040513d601f19601f82011682018060405250810190610d0591906134cf565b905080610d3e576040517f96d6c02400000000000000000000000000000000000000000000000000000000815260040160405180910390fd5b3373ffffffffffffffffffffffffffffffffffffffff167f99039fcf0a98f484616c5196ee8b2ecfa971babf0b519848289ea4db381f85f78888604051610d869291906134fc565b60405180910390a250610d97612633565b505050505050565b600061010160003373ffffffffffffffffffffffffffffffffffffffff1673ffffffffffffffffffffffffffffffffffffffff16815260200190815260200160002060008373ffffffffffffffffffffffffffffffffffffffff1673ffffffffffffffffffffffffffffffffffffffff168152602001908152602001600020549050919050565b60008060019054906101000a900460ff16159050808015610e575750600160008054906101000a900460ff1660ff16105b80610e845750610e663061263d565b158015610e835750600160008054906101000a900460ff1660ff16145b5b610ec3576040517f08c379a0000000000000000000000000000000000000000000000000000000008152600401610eba90613597565b60405180910390fd5b60016000806101000a81548160ff021916908360ff1602179055508015610f00576001600060016101000a81548160ff0219169083151502179055505b610f08612660565b610f106126b9565b8360fb60006101000a81548173ffffffffffffffffffffffffffffffffffffffff021916908373ffffffffffffffffffffffffffffffffffffffff1602179055508260fc60006101000a81548173ffffffffffffffffffffffffffffffffffffffff021916908373ffffffffffffffffffffffffffffffffffffffff1602179055508160fd60006101000a81548173ffffffffffffffffffffffffffffffffffffffff021916908373ffffffffffffffffffffffffffffffffffffffff160217905550801561102c5760008060016101000a81548160ff0219169083151502179055507f7f26b83ff96e1f2b6a682f133852f6798a09c465da95921460cefb384740249860016040516110239190613609565b60405180910390a15b50505050565b60008082116110445760009050611166565b600083905060008173ffffffffffffffffffffffffffffffffffffffff1663feaf968c6040518163ffffffff1660e01b815260040160a060405180830381865afa158015611096573d6000803e3d6000fd5b505050506040513d601f19601f820116820180604052508101906110ba919061369c565b505050915050600081136110d1576110d0613717565b5b60006402540be400826110e49190613746565b905073__$b4cafc809c0c4516e81e1b7a7f4901dbfc$__63761fdad686836040518363ffffffff1660e01b815260040161111f9291906130b6565b602060405180830381865af415801561113c573d6000803e3d6000fd5b505050506040513d601f19601f8201168201806040525081019061116091906130f4565b93505050505b92915050565b6111746124a0565b80600073ffffffffffffffffffffffffffffffffffffffff168173ffffffffffffffffffffffffffffffffffffffff16036111e4576040517f08c379a00000000000000000000000000000000000000000000000000000000081526004016111db90613334565b60405180910390fd5b6112226040518060400160405280600f81526020017f616464546f6b656e2063616c6c65640000000000000000000000000000000000815250612712565b610100829080600181540180825580915050600190039060005260206000200160009091909190916101000a81548173ffffffffffffffffffffffffffffffffffffffff021916908373ffffffffffffffffffffffffffffffffffffffff160217905550600161010360008473ffffffffffffffffffffffffffffffffffffffff1673ffffffffffffffffffffffffffffffffffffffff16815260200190815260200160002060006101000a81548160ff0219169083151502179055507f02fb12ee42ca4026d39d2102e2e3d3fcb4d12c158f8e0028f2f1eed6cf33ecbe8260016040516113119291906137cd565b60405180910390a15050565b80600073ffffffffffffffffffffffffffffffffffffffff168173ffffffffffffffffffffffffffffffffffffffff160361138d576040517f08c379a000000000000000000000000000000000000000000000000000000000815260040161138490613334565b60405180910390fd5b8161010360008273ffffffffffffffffffffffffffffffffffffffff1673ffffffffffffffffffffffffffffffffffffffff16815260200190815260200160002060009054906101000a900460ff1661141b576040517f08c379a0000000000000000000000000000000000000000000000000000000008152600401611412906133a0565b60405180910390fd5b33836114256121e9565b60ff819055504360fe8190555061143c8282610341565b61010560008473ffffffffffffffffffffffffffffffffffffffff1673ffffffffffffffffffffffffffffffffffffffff16815260200190815260200160002060008373ffffffffffffffffffffffffffffffffffffffff1673ffffffffffffffffffffffffffffffffffffffff1681526020019081526020016000208190555060ff5461010460008473ffffffffffffffffffffffffffffffffffffffff1673ffffffffffffffffffffffffffffffffffffffff16815260200190815260200160002060008373ffffffffffffffffffffffffffffffffffffffff1673ffffffffffffffffffffffffffffffffffffffff168152602001908152602001600020819055506115496125e4565b60006115553387610341565b905060008111611591576040517fa00c9b2700000000000000000000000000000000000000000000000000000000815260040160405180910390fd5b600061010560003373ffffffffffffffffffffffffffffffffffffffff1673ffffffffffffffffffffffffffffffffffffffff16815260200190815260200160002060008873ffffffffffffffffffffffffffffffffffffffff1673ffffffffffffffffffffffffffffffffffffffff16815260200190815260200160002081905550600060fb60009054906101000a900473ffffffffffffffffffffffffffffffffffffffff1673ffffffffffffffffffffffffffffffffffffffff1663a9059cbb3361170360fb60009054906101000a900473ffffffffffffffffffffffffffffffffffffffff1673ffffffffffffffffffffffffffffffffffffffff166370a08231336040518263ffffffff1660e01b81526004016116b39190612f6a565b602060405180830381865afa1580156116d0573d6000803e3d6000fd5b505050506040513d601f19601f820116820180604052508101906116f491906130f4565b866122ba90919063ffffffff16565b6040518363ffffffff1660e01b81526004016117209291906134fc565b6020604051808303816000875af115801561173f573d6000803e3d6000fd5b505050506040513d601f19601f8201168201806040525081019061176391906134cf565b90508061179c576040517f96d6c02400000000000000000000000000000000000000000000000000000000815260040160405180910390fd5b3373ffffffffffffffffffffffffffffffffffffffff167f9aa05b3d70a9e3e2f004f039648839560576334fb45c81f91b6db03ad9e2efc988846040516117e49291906134fc565b60405180910390a250506117f6612633565b5050505050565b6118056124a0565b600073ffffffffffffffffffffffffffffffffffffffff168173ffffffffffffffffffffffffffffffffffffffff1603611874576040517f08c379a000000000000000000000000000000000000000000000000000000000815260040161186b90613868565b60405180910390fd5b61187d8161251e565b50565b81600073ffffffffffffffffffffffffffffffffffffffff168173ffffffffffffffffffffffffffffffffffffffff16036118f0576040517f08c379a00000000000000000000000000000000000000000000000000000000081526004016118e790613334565b60405180910390fd5b8261010360008273ffffffffffffffffffffffffffffffffffffffff1673ffffffffffffffffffffffffffffffffffffffff16815260200190815260200160002060009054906101000a900460ff1661197e576040517f08c379a0000000000000000000000000000000000000000000000000000000008152600401611975906133a0565b60405180910390fd5b33846119886121e9565b60ff819055504360fe8190555061199f8282610341565b61010560008473ffffffffffffffffffffffffffffffffffffffff1673ffffffffffffffffffffffffffffffffffffffff16815260200190815260200160002060008373ffffffffffffffffffffffffffffffffffffffff1673ffffffffffffffffffffffffffffffffffffffff1681526020019081526020016000208190555060ff5461010460008473ffffffffffffffffffffffffffffffffffffffff1673ffffffffffffffffffffffffffffffffffffffff16815260200190815260200160002060008373ffffffffffffffffffffffffffffffffffffffff1673ffffffffffffffffffffffffffffffffffffffff16815260200190815260200160002081905550611aac6125e4565b60007fffffffffffffffffffffffffffffffffffffffffffffffffffffffffffffffff8614611adb5785611b5a565b61010160003373ffffffffffffffffffffffffffffffffffffffff1673ffffffffffffffffffffffffffffffffffffffff16815260200190815260200160002060008873ffffffffffffffffffffffffffffffffffffffff1673ffffffffffffffffffffffffffffffffffffffff168152602001908152602001600020545b905060008611611b9f576040517f08c379a0000000000000000000000000000000000000000000000000000000008152600401611b969061340c565b60405180910390fd5b8061010160003373ffffffffffffffffffffffffffffffffffffffff1673ffffffffffffffffffffffffffffffffffffffff16815260200190815260200160002060008973ffffffffffffffffffffffffffffffffffffffff1673ffffffffffffffffffffffffffffffffffffffff168152602001908152602001600020541015611c5f576040517f08c379a0000000000000000000000000000000000000000000000000000000008152600401611c56906138d4565b60405180910390fd5b8061010260008973ffffffffffffffffffffffffffffffffffffffff1673ffffffffffffffffffffffffffffffffffffffff168152602001908152602001600020541015611ce2576040517f08c379a0000000000000000000000000000000000000000000000000000000008152600401611cd9906138d4565b60405180910390fd5b8061010160003373ffffffffffffffffffffffffffffffffffffffff1673ffffffffffffffffffffffffffffffffffffffff16815260200190815260200160002060008973ffffffffffffffffffffffffffffffffffffffff1673ffffffffffffffffffffffffffffffffffffffff1681526020019081526020016000206000828254611d6f9190613073565b925050819055508061010260008973ffffffffffffffffffffffffffffffffffffffff1673ffffffffffffffffffffffffffffffffffffffff1681526020019081526020016000206000828254611dc69190613073565b9250508190555060008773ffffffffffffffffffffffffffffffffffffffff1663a9059cbb33846040518363ffffffff1660e01b8152600401611e0a9291906134fc565b6020604051808303816000875af1158015611e29573d6000803e3d6000fd5b505050506040513d601f19601f82011682018060405250810190611e4d91906134cf565b905080611e86576040517f96d6c02400000000000000000000000000000000000000000000000000000000815260040160405180910390fd5b3373ffffffffffffffffffffffffffffffffffffffff167f9b1bfa7fa9ee420a16e124f794c35ac9f90472acc99140eb2f6447c714cad8eb8984604051611ece9291906134fc565b60405180910390a25050611ee0612633565b505050505050565b60008261010360008273ffffffffffffffffffffffffffffffffffffffff1673ffffffffffffffffffffffffffffffffffffffff16815260200190815260200160002060009054906101000a900460ff16611f78576040517f08c379a0000000000000000000000000000000000000000000000000000000008152600401611f6f906133a0565b60405180910390fd5b600060fc60009054906101000a900473ffffffffffffffffffffffffffffffffffffffff1673ffffffffffffffffffffffffffffffffffffffff1663e6a439058660fd60009054906101000a900473ffffffffffffffffffffffffffffffffffffffff166040518363ffffffff1660e01b8152600401611ff99291906138f4565b602060405180830381865afa158015612016573d6000803e3d6000fd5b505050506040513d601f19601f8201168201806040525081019061203a9190613932565b90506000808273ffffffffffffffffffffffffffffffffffffffff16630902f1ac6040518163ffffffff1660e01b8152600401606060405180830381865afa15801561208a573d6000803e3d6000fd5b505050506040513d601f19601f820116820180604052508101906120ae91906139e1565b509150915073__$b4cafc809c0c4516e81e1b7a7f4901dbfc$__63761fdad68761217f612104866dffffffffffffffffffffffffffff16866dffffffffffffffffffffffffffff166127ab90919063ffffffff16565b73__$b4cafc809c0c4516e81e1b7a7f4901dbfc$__633dca36386040518163ffffffff1660e01b8152600401602060405180830381865af415801561214d573d6000803e3d6000fd5b505050506040513d601f19601f8201168201806040525081019061217191906130f4565b6127ab90919063ffffffff16565b6040518363ffffffff1660e01b815260040161219c9291906130b6565b602060405180830381865af41580156121b9573d6000803e3d6000fd5b505050506040513d601f19601f820116820180604052508101906121dd91906130f4565b94505050505092915050565b6000806121f46127c1565b9050600081036122095760ff549150506122b7565b8073__$b4cafc809c0c4516e81e1b7a7f4901dbfc$__633dca36386040518163ffffffff1660e01b8152600401602060405180830381865af4158015612253573d6000803e3d6000fd5b505050506040513d601f19601f8201168201806040525081019061227791906130f4565b6103e860fe54436122889190613073565b6122929190613a34565b61229c9190613a34565b6122a69190613aa5565b60ff546122b3919061342c565b9150505b90565b600081836122c8919061342c565b905092915050565b60006122fe7f360894a13ba1a3210667c828492db98dca3e2076cc3735a920a3ca505d382bbc60001b6128e9565b60000160009054906101000a900473ffffffffffffffffffffffffffffffffffffffff16905090565b61232f6124a0565b50565b61235e7f4910fdfa16fed3260ed0e7147f7cc6da11a60208b5b9406d12a635614ffd914360001b6128f3565b60000160009054906101000a900460ff16156123825761237d836128fd565b61249b565b8273ffffffffffffffffffffffffffffffffffffffff166352d1902d6040518163ffffffff1660e01b8152600401602060405180830381865afa9250505080156123ea57506040513d601f19601f820116820180604052508101906123e79190613b02565b60015b612429576040517f08c379a000000000000000000000000000000000000000000000000000000000815260040161242090613ba1565b60405180910390fd5b7f360894a13ba1a3210667c828492db98dca3e2076cc3735a920a3ca505d382bbc60001b811461248e576040517f08c379a000000000000000000000000000000000000000000000000000000000815260040161248590613c33565b60405180910390fd5b5061249a8383836129b6565b5b505050565b6124a86129e2565b73ffffffffffffffffffffffffffffffffffffffff166124c66108ff565b73ffffffffffffffffffffffffffffffffffffffff161461251c576040517f08c379a000000000000000000000000000000000000000000000000000000000815260040161251390613c9f565b60405180910390fd5b565b6000609760009054906101000a900473ffffffffffffffffffffffffffffffffffffffff16905081609760006101000a81548173ffffffffffffffffffffffffffffffffffffffff021916908373ffffffffffffffffffffffffffffffffffffffff1602179055508173ffffffffffffffffffffffffffffffffffffffff168173ffffffffffffffffffffffffffffffffffffffff167f8be0079c531659141344cd1fd0a4f28419497f9722a3daafe3b4186f6b6457e060405160405180910390a35050565b600260c95403612629576040517f08c379a000000000000000000000000000000000000000000000000000000000815260040161262090613d0b565b60405180910390fd5b600260c981905550565b600160c981905550565b6000808273ffffffffffffffffffffffffffffffffffffffff163b119050919050565b600060019054906101000a900460ff166126af576040517f08c379a00000000000000000000000000000000000000000000000000000000081526004016126a690613d9d565b60405180910390fd5b6126b76129ea565b565b600060019054906101000a900460ff16612708576040517f08c379a00000000000000000000000000000000000000000000000000000000081526004016126ff90613d9d565b60405180910390fd5b612710612a4b565b565b6127a8816040516024016127269190613e2b565b6040516020818303038152906040527f41304fac000000000000000000000000000000000000000000000000000000007bffffffffffffffffffffffffffffffffffffffffffffffffffffffff19166020820180517bffffffffffffffffffffffffffffffffffffffffffffffffffffffff8381831617835250505050612aa4565b50565b600081836127b99190613aa5565b905092915050565b600080610100805490509050600080600090505b828110156128e057600061010082815481106127f4576127f3613e4d565b5b9060005260206000200160009054906101000a900473ffffffffffffffffffffffffffffffffffffffff16905061010360008273ffffffffffffffffffffffffffffffffffffffff1673ffffffffffffffffffffffffffffffffffffffff16815260200190815260200160002060009054906101000a900460ff16156128cc576128be8161010260008473ffffffffffffffffffffffffffffffffffffffff1673ffffffffffffffffffffffffffffffffffffffff16815260200190815260200160002054611ee8565b836128c9919061342c565b92505b5080806128d890613e7c565b9150506127d5565b50809250505090565b6000819050919050565b6000819050919050565b6129068161263d565b612945576040517f08c379a000000000000000000000000000000000000000000000000000000000815260040161293c90613f36565b60405180910390fd5b806129727f360894a13ba1a3210667c828492db98dca3e2076cc3735a920a3ca505d382bbc60001b6128e9565b60000160006101000a81548173ffffffffffffffffffffffffffffffffffffffff021916908373ffffffffffffffffffffffffffffffffffffffff16021790555050565b6129bf83612acd565b6000825111806129cc5750805b156129dd576129db8383612b1c565b505b505050565b600033905090565b600060019054906101000a900460ff16612a39576040517f08c379a0000000000000000000000000000000000000000000000000000000008152600401612a3090613d9d565b60405180910390fd5b612a49612a446129e2565b61251e565b565b600060019054906101000a900460ff16612a9a576040517f08c379a0000000000000000000000000000000000000000000000000000000008152600401612a9190613d9d565b60405180910390fd5b600160c981905550565b60008151905060006a636f6e736f6c652e6c6f679050602083016000808483855afa5050505050565b612ad6816128fd565b8073ffffffffffffffffffffffffffffffffffffffff167fbc7cd75a20ee27fd9adebab32041f755214dbc6bffa90cc0225b39da2e5c2d3b60405160405180910390a250565b6060612b278361263d565b612b66576040517f08c379a0000000000000000000000000000000000000000000000000000000008152600401612b5d90613fc8565b60405180910390fd5b6000808473ffffffffffffffffffffffffffffffffffffffff1684604051612b8e919061402f565b600060405180830381855af49150503d8060008114612bc9576040519150601f19603f3d011682016040523d82523d6000602084013e612bce565b606091505b5091509150612bf6828260405180606001604052806027815260200161404760279139612c00565b9250505092915050565b60608315612c1057829050612c1b565b612c1a8383612c22565b5b9392505050565b600082511115612c355781518083602001fd5b806040517f08c379a0000000000000000000000000000000000000000000000000000000008152600401612c699190613e2b565b60405180910390fd5b6000604051905090565b600080fd5b600080fd5b600073ffffffffffffffffffffffffffffffffffffffff82169050919050565b6000612cb182612c86565b9050919050565b612cc181612ca6565b8114612ccc57600080fd5b50565b600081359050612cde81612cb8565b92915050565b60008060408385031215612cfb57612cfa612c7c565b5b6000612d0985828601612ccf565b9250506020612d1a85828601612ccf565b9150509250929050565b6000819050919050565b612d3781612d24565b82525050565b6000602082019050612d526000830184612d2e565b92915050565b600060208284031215612d6e57612d6d612c7c565b5b6000612d7c84828501612ccf565b91505092915050565b600080fd5b600080fd5b6000601f19601f8301169050919050565b7f4e487b7100000000000000000000000000000000000000000000000000000000600052604160045260246000fd5b612dd882612d8f565b810181811067ffffffffffffffff82111715612df757612df6612da0565b5b80604052505050565b6000612e0a612c72565b9050612e168282612dcf565b919050565b600067ffffffffffffffff821115612e3657612e35612da0565b5b612e3f82612d8f565b9050602081019050919050565b82818337600083830152505050565b6000612e6e612e6984612e1b565b612e00565b905082815260208101848484011115612e8a57612e89612d8a565b5b612e95848285612e4c565b509392505050565b600082601f830112612eb257612eb1612d85565b5b8135612ec2848260208601612e5b565b91505092915050565b60008060408385031215612ee257612ee1612c7c565b5b6000612ef085828601612ccf565b925050602083013567ffffffffffffffff811115612f1157612f10612c81565b5b612f1d85828601612e9d565b9150509250929050565b6000819050919050565b612f3a81612f27565b82525050565b6000602082019050612f556000830184612f31565b92915050565b612f6481612ca6565b82525050565b6000602082019050612f7f6000830184612f5b565b92915050565b612f8e81612d24565b8114612f9957600080fd5b50565b600081359050612fab81612f85565b92915050565b60008060408385031215612fc857612fc7612c7c565b5b6000612fd685828601612ccf565b9250506020612fe785828601612f9c565b9150509250929050565b60008060006060848603121561300a57613009612c7c565b5b600061301886828701612ccf565b935050602061302986828701612ccf565b925050604061303a86828701612ccf565b9150509250925092565b7f4e487b7100000000000000000000000000000000000000000000000000000000600052601160045260246000fd5b600061307e82612d24565b915061308983612d24565b92508282039050818111156130a1576130a0613044565b5b92915050565b6130b081612d24565b82525050565b60006040820190506130cb60008301856130a7565b6130d860208301846130a7565b9392505050565b6000815190506130ee81612f85565b92915050565b60006020828403121561310a57613109612c7c565b5b6000613118848285016130df565b91505092915050565b600082825260208201905092915050565b7f46756e6374696f6e206d7573742062652063616c6c6564207468726f7567682060008201527f64656c656761746563616c6c0000000000000000000000000000000000000000602082015250565b600061318e602c83613121565b915061319982613132565b604082019050919050565b600060208201905081810360008301526131bd81613181565b9050919050565b7f46756e6374696f6e206d7573742062652063616c6c6564207468726f7567682060008201527f6163746976652070726f78790000000000000000000000000000000000000000602082015250565b6000613220602c83613121565b915061322b826131c4565b604082019050919050565b6000602082019050818103600083015261324f81613213565b9050919050565b7f555550535570677261646561626c653a206d757374206e6f742062652063616c60008201527f6c6564207468726f7567682064656c656761746563616c6c0000000000000000602082015250565b60006132b2603883613121565b91506132bd82613256565b604082019050919050565b600060208201905081810360008301526132e1816132a5565b9050919050565b7f57726f6e6720616464726573732070726f766964656400000000000000000000600082015250565b600061331e601683613121565b9150613329826132e8565b602082019050919050565b6000602082019050818103600083015261334d81613311565b9050919050565b7f746f6b656e206e6f7420616c6c6f776564000000000000000000000000000000600082015250565b600061338a601183613121565b915061339582613354565b602082019050919050565b600060208201905081810360008301526133b98161337d565b9050919050565b7f416d6f756e742073686f756c642067726561746572207468616e207a65726f00600082015250565b60006133f6601f83613121565b9150613401826133c0565b602082019050919050565b60006020820190508181036000830152613425816133e9565b9050919050565b600061343782612d24565b915061344283612d24565b925082820190508082111561345a57613459613044565b5b92915050565b60006060820190506134756000830186612f5b565b6134826020830185612f5b565b61348f6040830184612d2e565b949350505050565b60008115159050919050565b6134ac81613497565b81146134b757600080fd5b50565b6000815190506134c9816134a3565b92915050565b6000602082840312156134e5576134e4612c7c565b5b60006134f3848285016134ba565b91505092915050565b60006040820190506135116000830185612f5b565b61351e6020830184612d2e565b9392505050565b7f496e697469616c697a61626c653a20636f6e747261637420697320616c72656160008201527f647920696e697469616c697a6564000000000000000000000000000000000000602082015250565b6000613581602e83613121565b915061358c82613525565b604082019050919050565b600060208201905081810360008301526135b081613574565b9050919050565b6000819050919050565b600060ff82169050919050565b6000819050919050565b60006135f36135ee6135e9846135b7565b6135ce565b6135c1565b9050919050565b613603816135d8565b82525050565b600060208201905061361e60008301846135fa565b92915050565b600069ffffffffffffffffffff82169050919050565b61364381613624565b811461364e57600080fd5b50565b6000815190506136608161363a565b92915050565b6000819050919050565b61367981613666565b811461368457600080fd5b50565b60008151905061369681613670565b92915050565b600080600080600060a086880312156136b8576136b7612c7c565b5b60006136c688828901613651565b95505060206136d788828901613687565b94505060406136e8888289016130df565b93505060606136f9888289016130df565b925050608061370a88828901613651565b9150509295509295909350565b7f4e487b7100000000000000000000000000000000000000000000000000000000600052600160045260246000fd5b600061375182613666565b915061375c83613666565b925082820261376a81613666565b91507f800000000000000000000000000000000000000000000000000000000000000084146000841216156137a2576137a1613044565b5b82820584148315176137b7576137b6613044565b5b5092915050565b6137c781613497565b82525050565b60006040820190506137e26000830185612f5b565b6137ef60208301846137be565b9392505050565b7f4f776e61626c653a206e6577206f776e657220697320746865207a65726f206160008201527f6464726573730000000000000000000000000000000000000000000000000000602082015250565b6000613852602683613121565b915061385d826137f6565b604082019050919050565b6000602082019050818103600083015261388181613845565b9050919050565b7f4e6f7420656e6f7567682062616c616e63650000000000000000000000000000600082015250565b60006138be601283613121565b91506138c982613888565b602082019050919050565b600060208201905081810360008301526138ed816138b1565b9050919050565b60006040820190506139096000830185612f5b565b6139166020830184612f5b565b9392505050565b60008151905061392c81612cb8565b92915050565b60006020828403121561394857613947612c7c565b5b60006139568482850161391d565b91505092915050565b60006dffffffffffffffffffffffffffff82169050919050565b6139828161395f565b811461398d57600080fd5b50565b60008151905061399f81613979565b92915050565b600063ffffffff82169050919050565b6139be816139a5565b81146139c957600080fd5b50565b6000815190506139db816139b5565b92915050565b6000806000606084860312156139fa576139f9612c7c565b5b6000613a0886828701613990565b9350506020613a1986828701613990565b9250506040613a2a868287016139cc565b9150509250925092565b6000613a3f82612d24565b9150613a4a83612d24565b9250828202613a5881612d24565b91508282048414831517613a6f57613a6e613044565b5b5092915050565b7f4e487b7100000000000000000000000000000000000000000000000000000000600052601260045260246000fd5b6000613ab082612d24565b9150613abb83612d24565b925082613acb57613aca613a76565b5b828204905092915050565b613adf81612f27565b8114613aea57600080fd5b50565b600081519050613afc81613ad6565b92915050565b600060208284031215613b1857613b17612c7c565b5b6000613b2684828501613aed565b91505092915050565b7f45524331393637557067726164653a206e657720696d706c656d656e7461746960008201527f6f6e206973206e6f742055555053000000000000000000000000000000000000602082015250565b6000613b8b602e83613121565b9150613b9682613b2f565b604082019050919050565b60006020820190508181036000830152613bba81613b7e565b9050919050565b7f45524331393637557067726164653a20756e737570706f727465642070726f7860008201527f6961626c65555549440000000000000000000000000000000000000000000000602082015250565b6000613c1d602983613121565b9150613c2882613bc1565b604082019050919050565b60006020820190508181036000830152613c4c81613c10565b9050919050565b7f4f776e61626c653a2063616c6c6572206973206e6f7420746865206f776e6572600082015250565b6000613c89602083613121565b9150613c9482613c53565b602082019050919050565b60006020820190508181036000830152613cb881613c7c565b9050919050565b7f5265656e7472616e637947756172643a207265656e7472616e742063616c6c00600082015250565b6000613cf5601f83613121565b9150613d0082613cbf565b602082019050919050565b60006020820190508181036000830152613d2481613ce8565b9050919050565b7f496e697469616c697a61626c653a20636f6e7472616374206973206e6f74206960008201527f6e697469616c697a696e67000000000000000000000000000000000000000000602082015250565b6000613d87602b83613121565b9150613d9282613d2b565b604082019050919050565b60006020820190508181036000830152613db681613d7a565b9050919050565b600081519050919050565b60005b83811015613de6578082015181840152602081019050613dcb565b60008484015250505050565b6000613dfd82613dbd565b613e078185613121565b9350613e17818560208601613dc8565b613e2081612d8f565b840191505092915050565b60006020820190508181036000830152613e458184613df2565b905092915050565b7f4e487b7100000000000000000000000000000000000000000000000000000000600052603260045260246000fd5b6000613e8782612d24565b91507fffffffffffffffffffffffffffffffffffffffffffffffffffffffffffffffff8203613eb957613eb8613044565b5b600182019050919050565b7f455243313936373a206e657720696d706c656d656e746174696f6e206973206e60008201527f6f74206120636f6e747261637400000000000000000000000000000000000000602082015250565b6000613f20602d83613121565b9150613f2b82613ec4565b604082019050919050565b60006020820190508181036000830152613f4f81613f13565b9050919050565b7f416464726573733a2064656c65676174652063616c6c20746f206e6f6e2d636f60008201527f6e74726163740000000000000000000000000000000000000000000000000000602082015250565b6000613fb2602683613121565b9150613fbd82613f56565b604082019050919050565b60006020820190508181036000830152613fe181613fa5565b9050919050565b600081519050919050565b600081905092915050565b600061400982613fe8565b6140138185613ff3565b9350614023818560208601613dc8565b80840191505092915050565b600061403b8284613ffe565b91508190509291505056fe416464726573733a206c6f772d6c6576656c2064656c65676174652063616c6c206661696c6564a2646970667358221220fb44ddf863d92b28aef912930c4585e27ccaf28af6f4dcedd9691a61918dcdcb64736f6c63430008110033","linkReferences":{"contracts/libraries/WadMath.sol":{"WadMath":[{"length":20,"start":1227},{"length":20,"start":4451},{"length":20,"start":8496},{"length":20,"start":8577},{"length":20,"start":8839}]}},"deployedLinkReferences":{"contracts/libraries/WadMath.sol":{"WadMath":[{"length":20,"start":1104},{"length":20,"start":4328},{"length":20,"start":8373},{"length":20,"start":8454},{"length":20,"start":8716}]}}}